:100B6A00436F64654C6F636B2050726F6772616D7F
:100B7A000050617373576F72642069733A0053317E
:100B8A00333A46504C20205331343A4E424C0053AB
:100B9A0031353A52455320205331363A45534300B2
:100BAA0050617373776F72643A00543A004F4B2066
:100BBA00005331363A456E7400455252004E6577FD
:100BCA005F50617373776F72643A005331363A45F6
:100BDA007363005468616E6B20796F752021210060
:100BEA0046726F6D3A00434A482C5759482C5A5757
:020BFA005900A0
:0A115200014503024A03F9014600BB
:08000300120ED9120D6880FBFA
:100ED9001212F17BFF7A0B796A7D017F011211767B
:100EE9007BFF7A0B797B7D017F02121176753F04B6
:100EF900AB4BAA4A7D0D7F021211F91207688F497F
:100F0900E54960F71212F1E4F5497F64FE1211997F
:010F190022B5
:100D680080371207688F49E54924F2601614601F1E
:100D7800146042240370EB7F647E00121199120EF6
:100D88008B80167F647E001211991208F1800A7F09
:100D9800647E0012119912000E7BFF7A0B79887D10
:100DA800017F011211767BFF7A0B79997D017F0211
:100DB80012117680AD7F647E001211991210FB1219
:040DC80012F1809E06
:10000E00E4F536F5371212F17BFF7A0B79AA7D01F2
:10001E007F011211767BFF7A0B79B47D057F021278
:10002E001176E545FB7A00753F017D077F021211BF
:10003E00F91207688F49E54960F7D3940A503E7F5D
:10004E00647E00121199E544C394045022AE36AF7B
:10005E00377C007D0A12035C8E368F37E54975F0CA
:10006E000A84E5F02537F537E43536F5360544755F
:10007E003F04AB37AA367D0D7F011211F9E54964B5
:10008E000B60030201387F64FE121199E537654B50
:10009E007004E536654A70467BFF7A0B79B77D01B1
:1000AE007F02121176E4F536F537F5447546017583
:1000BE004503E545FB7A00753F017D077F0212116E
:1000CE00F9753F04AB37AA367D0D7F011211F97B0E
:1000DE00FF7A0B79BB7D0A7F02121176804CE545C3
:1000EE00D3940040357BFF7A0B79C37D017F0212DA
:1000FE001176E4F536F537F5441545753F04AB48F2
:10010E00AA477D0D7F011211F9E545FB7A00753F77
:10011E00017D077F021211F980107F647E0012119B
:10012E00997F647E001212C780F0E549B40C1C7FE3
:10013E00647E00121199E4F536F537F544753F04E7
:10014E00AB37AA367D0D7F011211F9E549641060B7
:10015E000302003F7F64FE121199E54664016003BD
:10016E00020238F536F537F5441212F175450312D1
:10017E0012F17BFF7A0B79C77D017F011211767B1D
:10018E00FF7A0B79D57D0A7F021211761207688FDE
:10019E0049E54960F7D3940A503E7F647E00121100
:1001AE0099E544C394045022AE36AF377C007D0AE5
:1001BE0012035C8E368F37E54975F00A84E5F0251B
:1001CE0037F537E43536F5360544753F04AB37AAB7
:1001DE00367D017F021211F9E549B40C267F647E4B
:1001EE0000121199AE36AF377C007D0A12036E8E67
:1001FE00368F371544753F04AB37AA367D017F0223
:10020E001211F9E549B40B0D7F647E001211998528
:10021E00364A85374BE5496410600302019A7F64C4
:0A022E00FE121199E4F5461212F1D8
:0102380022A3
:100E8B00120F1A1207688F49E549B40D0D7F647E66
:100E9B0000121199120A5F120F1AE549B40E0D7F59
:100EAB00647E001211991205CD120F1AE549B40F89
:100EBB000D7F647E00121199120C88120F1AE549EE
:0E0ECB00B410C07F647E001211991212992299
:1008F1001212F17BFF7A0B79AA7D017F0112117629
:100901007BFF7A0B79B47D057F02121176E545FBF9
:100911007A00753F017D077F021211F97BFF7A0B87
:1009210079D57D0A7F02121176E4F5441207688FAA
:1009310049E54960F7D3940A503E7F647E00121165
:1009410099E544C394045022AE47AF487C007D0A28
:1009510012035C8E478F48E54975F00A84E5F0255E
:1009610048F548E43547F5470544753F04AB48AAC7
:10097100477D0D7F011211F9E549640B6003020AFD
:100981001C7F64FE121199E548654B7004E54765CB
:100991004A703C7BFF7A0B79B77D017F0212117699
:1009A100E4F547F548F544754601754503E545FB12
:1009B1007A00753F017D077F021211F9753F04AB83
:1009C10048AA477D0D7F011211F91212DC804CE516
:1009D10045D3940040357BFF7A0B79C37D017F02BB
:1009E100121176E4F547F548F5441545753F04AB1A
:1009F10048AA477D0D7F011211F9E545FB7A007583
:100A01003F017D077F021211F980107F647E001281
:100A110011997F647E001212C780F0E549B40C1C65
:100A21007F647E00121199E4F547F548F544753F5E
:100A310004AB48AA477D0D7F011211F9E549641005
:100A4100600302092D7F64FE121199E546B4010A83
:0E0A5100121299E4F546F547F5481212F1220B
:1010FB001212F17BFF7A0B79DD7D017F01121176E4
:10110B007BFF7A0B79EA7D017F021211767BFF7AE6
:0C111B000B79F07D067F0212117680FE39
:06132900C2A58F80D2A7CF
:08132F007F027EEFDEFEDFFC11
:011337002293
:0A133800C2A6121329C2A702132F48
:1011DB00CFCDCFCECCCE12036E7C007D0A12036E28
:0411EB00ED2430FFC0
:0A11EF00D2A6121329C2A702132F83
:1012B100AE07BE0104ED148006BE0209ED243F44D1
:0612C10080FF1213382229
:1012F1007F381213387F0C1213387F061213387F90
:04130100010213389A
:0A134200AC031212B1AF040211EF68
:061176008B3B8A3C893D21
:10117C001212B1E4FDAB3BAA3CA93D8D82758300F4
:0C118C0012032FFF60061211EF0D80E926
:011198002234
:0C103B007F0AEA24FFFDE434FFFC7E0085
:081047008E408F418C428D4365
:10104F007F017E00E4FBEBC39543E5426480F874B7
:0E105F008098500AAC40AD4112035C0B80E853
:01106D002260
:0411F9008A3D8B3E62
:1011FD001212B1AA3FEAD39400400D12103BAC3D40
:08120D00AD3E1211DB1A80ED69
:0112150022B6
:100F58001212B1C3EA64809480400B7F2B1211EF08
:100F68008A528B53800E7F2D1211EFC3E49BF553E9
:100F7800E49AF552AA51EAD39400400D12103BAC02
:090F880052AD531211DB1A80ED89
:010F9100223D
:040F92008A568B5799
:100F96001212B1AA58EAD3940040297F1012103DCC
:100FA600AC56AD57CFCDCFCECCCE12036EEF540F8D
:100FB600FEC3940AEE5004243080022437FF121137
:040FC600EF1A80D1CD
:010FCA002204
:040FCB008A5B8B5C56
:100FCF001212B1AA5DEAD394004028EA24FFFDE48F
:100FDF0034FFFC7F027E00121047AC5BAD5CCFCDBF
:100FEF00CFCECCCE12036EEF54012430FF1211EF8F
:030FFF001A80D283
:0110020022CB
:05136300007FF7DFFE32
:011368002262
:04119900AD07AC06EC
:10119D00E4FBFAED25E0FFEC33FEC3EB9FEA9E5036
:0D11AD000CB2951213630BBB00010A80E623
:0111BA002212
:10076800E4F53B7590FFC2932097137F14FE121295
:10077800C73097FD7F147E001212C7753B01209683
:10078800147F147E001212C73096FD7F147E00126B
:1007980012C7753B052095147F147E001212C730CE
:1007A80095FD7F147E001212C7753B092094147FB3
:1007B800147E001212C73094FD7F147E001212C7F7
:1007C800753B0D7590FFC2922097147F147E00121E
:1007D80012C73097FD7F147E001212C7753B0220A6
:1007E80096147F147E001212C73096FD7F147E0087
:1007F8001212C7753B062095147F147E001212C78B
:100808003095FD7F147E001212C7753B0A209414A0
:100818007F147E001212C73094FD7F147E001212DE
:10082800C7753B0E7590FFC2912097147F147E0008
:100838001212C73097FD7F147E001212C7753B0352
:100848002096147F147E001212C73096FD7F147E06
:10085800001212C7753B072095147F147E001212F0
:10086800C73095FD7F147E001212C7753B0B20948C
:10087800147F147E001212C73094FD7F147E00127C
:1008880012C7753B0F7590FFC2902097147F147E96
:10089800001212C73097FD7F147E001212C7753BF5
:1008A800042096147F147E001212C73096FD7F1420
:1008B8007E001212C7753B082095147F147E001223
:1008C80012C73095FD7F147E001212C7753B0C20AD
:1008D80094147F147E001212C73094FD7F147E009A
:0808E8001212C7753B10AF3B73
:0108F00022E5
:1012C700EF1FAC0670011E4C600A7D027CEFDCFE4E
:0412D700DDFC80ECCE
:0112DB0022F0
:100DCC00E4F56220B1137F14FE1212C730B1FD7F1F
:100DDC00147E001212C775620120B0147F147E00BD
:100DEC001212C730B0FD7F147E001212C77562025A
:100DFC0020B2147F147E001212C730B2FD7F147E15
:100E0C00001212C775620320B3147F147E001212F5
:100E1C00C730B3FD7F147E001212C7756204AF6237
:010E2C0022A3
:04115C00026000002D
:10131900758901D2A9D28CD2AF758CFE758A332218
:07135C00C2A9C28CC2AF223E
:03000B00021003DD
:10100300C0E0C0D0C28C0561E56170020560758CDB
:10101300FE758A33D3E561955FE560955E5004D232
:1010230090800EC290E561642845607004F560F518
:0810330061D28CD0D0D0E03274
:1011BB00D3EF9400EE6480948040147D6E7C00ED40
:0F11CB001D70011CED4C70F7EF1F70E41E80E1EA
:0111DA0022F2
:1012DC00E4F590121319F55E755F057FF47E01122B
:0512EC0011BB02135CC0
:10129900E4F590121319F55E755F017FF47E011272
:0812A90011BBE4F59002135C97
:10130500759850E4F587758921758DFD758BFDD22E
:041315008ED2AF22A3
:08134C008F993099FDC299222E
:071354003098FDC298AF992B
:01135B00226F
:10040C0046696E6765722049443A0053393A2B535A
:10041C0031303A5F5331323A4F4B00506C65617357
:10042C006550757446696E67657231005375636308
:10043C0065737366756C456E7472793100506C65BA
:10044C0061736550757446696E67657232005375D9
:10045C00636365737366756C456E747279320020D4
:10046C00202020494420697300202020416464200E
:10047C002066696E6765722020002046696E67658C
:10048C007220506C6561736520005331333A4F4BC9
:10049C0020205331363A45736300205365617263F3
:1004AC00682073756363657373200049443A005385
:1004BC0031363A45736300205365617263682020BE
:1004CC006661696C656420005331363A45534300CC
:1004DC00202020456D70747920416C6C3F202020C9
:1004EC00005331353A59455320205331363A4E4F4B
:1004FC0000202020656D707479696E6720202020A3
:10050C002000202020416C6C20656D7074792020B7
:10051C002020004C6F6164696E67002A00446F6391
:10052C006B696E6720206661696C75726500446F3B
:10053C00636B696E67202073756363657373004624
:10054C00696E6765727072696E742054657374009D
:10055C005331333A46696E20205331343A41646446
:10056C00005331353A44656C20205331363A4553AB
:10057C0043000100071300000000001BEF01FFFF08
:10058C00FFFF0100030100050100031D0021010014
:10059C000804010000001300210100080401000000
:1005AC0003E700F801000402010008010004020244
:1005BC0000090100030500090100030D00110000F2
:0105CC00002E
:1011600001140101080002090000090B0100060634
:0511700001000B001955
:10112700E4F53CF53D7488253DF5827405353CF5BD
:1011370083E493FF12134C053DE53D7002053CC364
:0A1147009406E53C6480948040DBD0
:01115100227B
:10106E00E4F537F538121127E4F537F538747E2597
:10107E0038F58274053537F583E493FF12134C056A
:10108E0038E53870020537C3940AE53764809480DA
:02109E0040DB35
:0110A000222D
:021216008F3B0C
:10121800E4F53CE53CC3953B500E12135474162577
:081228003CF8A607053C80EB31
:01123000229B
:10123100121127E4F53BE53B90058E93FF12134C09
:09124100053BE53BC3940640EDBA
:01124A002281
:10124B00121127E4F53BE53B9005B093FF12134CCD
:09125B00053BE53BC3940740ED9F
:011264002267
:1010A100E4F536E53690058893FF12134C0536E5D5
:1010B10036C3940640EDE4F536E5369005B793FF67
:0C10C10012134C0536E536C3940740EDD1
:0110CD002200
:10126500121127E4F53BE53B9005A593FF12134CBE
:09127500053BE53BC3940B40ED81
:01127E00224D
:10127F00121127E4F536E5369005BE93FF12134C95
:09128F000536E536C3940640ED76
:011298002233
:1010CE00E4F536E53690058893FF12134C0536E5A8
:1010DE0036C3940640EDE4F536E5369005C493FF2D
:0C10EE0012134C0536E536C3940640EDA5
:0110FA0022D3
:020D0000AB073F
:100D0200E4F539F538F537F536EEF510EBF511E483
:100D1200F53A740B253AF8E6FFE4FCFDFEE5392FBF
:100D2200F539EE3538F538ED3537F537EC3536F53A
:100D320036053AE53AB407DAE4FFE538FEE4FDFCAD
:100D420078081203F98F12E539FF8F13121127E485
:100D5200F53A740B253AF8E6FF12134C053AE53AD8
:050D6200C3940940EDFF
:010D67002269
:1005CD001212F17BFF7A04790CE4FD7F0112117692
:1005DD007BFF7A047917E4FD7F02121176753F03D4
:1005ED00AB0AAA097D0E7F011211F91207688F154A
:1005FD00E515B4092B7F647E00121199050AE50AF1
:10060D0070020509AE09FF7C017D2C1203C38C0914
:10061D008D0A753F03AB0AAA097D0E7F011211F9F0
:10062D00E515B40A2C7F647E00121199E50A150AAE
:10063D0070021509C3E5096480948050067509019F
:10064D00750A2B753F03AB0AAA097D0E7F011211A6
:10065D00F9E515640C60030207317F64FE121199F0
:10066D001212F17BFF7A047927E4FD7F01121176D6
:10067D001212317F0C121216E51F70417F64FE12AB
:10068D0012C712124B7F0C1212161212F17BFF7A47
:10069D00047938E4FD7F011211767F647E0012111A
:1006AD00997F647E001212C77BFF7A047949E4FDBD
:1006BD007F011211761212317F0C121216E51F7086
:1006CD00637FC8FE1212C71212F17BFF7A04795AAA
:1006DD00E4FD7F011211767BFF7A04796BE4FD7FD7
:1006ED0002121176753F03AB0AAA097D0B7F021228
:1006FD0011F91210A17F0C12121612127F7F0C121B
:10070D001216AF0AAE09120D007F0C1212167F647D
:10071D007E001211997FE87E031212C7050AE50AC1
:10072D0070020509E515640E70277BFF7A04797553
:10073D00FD7F011211767BFF7A04796BE4FD7F0258
:10074D00121176753F03AB0AAA097D0B7F021211B8
:0B075D00F9E515641060030205F822A6
:100A5F00E4F536F53778387C00FD7BFF7A0579CAE7
:100A6F00FE7F031203091212F17BFF7A047986E4E9
:100A7F00FD7F011211767BFF7A047996E4FD7F02E8
:100A8F001211761207688F15E51524F07003020B0B
:100A9F0060240370EE7F647E0012119912123112DE
:100AAF0012317F0C121216E51F70D87F64FE1212DE
:100ABF00C712124B7F0C1212161212657F101212F0
:100ACF0016E51F70651212F17BFF7A0479A6E4FD1B
:100ADF007F011211767BFF7A0479B7E4FD7F021252
:100AEF0011767F647E00121199AF20EFFEAD217C4D
:100AFF0000E42DF537EC3EF536753F03AB37FA7D45
:100B0F00047F021211F97BFF7A0479BB7D0A7F0201
:100B1F001211767FE87E031212C7E5086003020AFE
:100B2F00921212DC750801020A921212F17BFF7AFF
:100B3F000479C3E4FD7F011211767BFF7A0479D427
:100B4F007D0A7F021211767F647E00121199020ACC
:0A0B5F0092E4F5087F64FE1211997C
:010B69002269
:100C88001212F17BFF7A0479DCE4FD7F0112117600
:100C98007BFF7A0479EDE4FD7F0212117612076872
:100CA8008F15E515640F704A7FE87E031212C7E4BA
:100CB800F5151207688F15E515640F70357BFF7AF7
:100CC8000479FDFD7F011211761212F11210CE7F08
:100CD8000C1212161212F17BFF7A05790EE4FD7FD1
:100CE800011211767F2C7E011212C77F647E0012DA
:080CF8001199E515B410A622C4
:100E2D00E4F536751F017BFF7A05791FFD7F0212F0
:100E3D001176E4F536E5362409FD7BFF7A05792731
:100E4D007F021211767F327E001212C70536E5360B
:100E5D00C3940840E07BFF7A057929E4FD7F0212F7
:100E6D00117612106E7F0C121216E51F700F7BFF9C
:0D0E7D007A05793AFD7F02121176E4F51432
:010E8A002245
:100F1A001212F11213057BFF7A05794BE4FD7F016A
:100F2A001211767FF47E011212C7120E2D7FE87E0F
:100F3A00031212C77BFF7A05795CE4FD7F01121167
:0E0F4A00767BFF7A05796DE4FD7F0202117659
:03000000020BFCF4
:0C0BFC00787FE4F6D8FD758162020C439E
:10023900E709F608DFFA8046E709F208DFFA803EA7
:1002490088828C83E709F0A3DFFA8032E309F60894
:10025900DFFA8078E309F208DFFA807088828C83FC
:10026900E309F0A3DFFA806489828A83E0A3F608B0
:10027900DFFA805889828A83E0A3F208DFFA804C8A
:1002890080D280FA80C680D4806980F28033801061
:1002990080A680EA809A80A880DA80E280CA8033CA
:1002A90089828A83ECFAE493A3C8C582C8CCC58342
:1002B900CCF0A3C8C582C8CCC583CCDFE9DEE78012
:1002C9000D89828A83E493A3F608DFF9ECFAA9F091
:1002D900EDFB2289828A83ECFAE0A3C8C582C8CCE7
:1002E900C583CCF0A3C8C582C8CCC583CCDFEADE00
:1002F900E880DB89828A83E493A3F208DFF980CC62
:1003090088F0EF60010E4E60C388F0ED2402B4045A
:100319000050B9F582EB2402B4040050AF23234501
:060329008223900289739B
:10032F00BB010CE58229F582E5833AF583E0225083
:10033F0006E92582F8E622BBFE06E92582F8E222CD
:0D034F00E58229F582E5833AF583E49322E7
:10035C00EF8DF0A4A8F0CF8CF0A428CE8DF0A42EB5
:02036C00FE226F
:10036E00BC000BBE0029EF8DF084FFADF022E4CC73
:10037E00F875F008EF2FFFEE33FEEC33FCEE9DEC3C
:10038E00984005FCEE9DFE0FD5F0E9E4CEFD22ED82
:10039E00F8F5F0EE8420D21CFEADF075F008EF2FCC
:1003AE00FFED33FD4007985006D5F0F222C398FDBD
:0503BE000FD5F0EA225A
:1003C300C2D5EC30E709B2D5E4C39DFDE49CFCEE55
:1003D30030E715B2D5E4C39FFFE49EFE12036EC35C
:1003E300E49DFDE49CFC800312036E30D507C3E457
:0603F3009FFFE49EFE22C4
:1003F900E8600FECC313FCED13FDEE13FEEF13FFE2
:03040900D8F12205
:100C0800020003E493A3F8E493A34003F68001F2FF
:100C180008DFF48029E493A3F85407240CC8C333ED
:100C2800C4540F4420C8834004F456800146F6DFBC
:100C3800E4800B0102040810204080901152E47EE9
:100C4800019360BCA3FF543F30E509541FFEE493B1
:100C5800A360010ECF54C025E060A840B8E493A378
:100C6800FAE493A3F8E493A3C8C582C8CAC583CAA3
:100C7800F0A3C8C582C8CAC583CADFE9DEE780BE5B
:011175000079
:00000001FF
